:1000000009C082C115C014C013C012C034C110C0D1
:100010000FC00EC011241FBECFE9CDBF20E0A0E667
:10002000B0E001C01D92A137B207E1F704D1A1C130
:10003000E7CF10926E0010926D001092700012BE09
:100040008BB780648BBF089580916C0087FF0FC0D1
:100050001092690010926A0010926B0088B3837E40
:1000600088BB8091680081111FC0C29A1DC0909109
:100070006C00E82F082E000CFF0BE759FF4F97FD8F
:1000800011C0891769F03081A92F092E000CBB0B14
:10009000A759BF4F2C91321303C0208120936800D1
:1000A0009150EDCF8150D2CF80916800813009F41A
:1000B000C49A80916800823009F4C39A10926C004F
:1000C00010926F00B6CF80916D00811108C0109220
:1000D0006700109266001092650010926400809193
:1000E000600090916100A0916200B0916300B19BAB
:1000F00004C00196A11DB11D03C00197A109B1095A
:100100008093600090936100A0936200B0936300BD
:100110002091670080916D00422F50E0082E000C66
:10012000990B4817590709F485C040916000509118
:100130006100609162007091630010926000109203
:1001400061001092620010926300211107C0141622
:100150001506160617060CF445C06BCF213039F48E
:1001600014161506160617060CF05DC0F6CF809122
:100170006600263068F4880F141615061606170652
:100180001CF0809366004FC08160809366001EC0A3
:10019000833019F710926F00E0916C00F0E0A091AD
:1001A0006C00B0E0A759BF4F8C91880FE759FF4F03
:1001B00080831416150616061706ACF5E0916C0040
:1001C000F0E0E759FF4F8081816080838091640077
:1001D00090916500880F991F1416150616061706CC
:1001E00044F406C08091640090916500880F991FC7
:1001F000816090936500809364002D3078F0809149
:100200006600833029F480916C008F5F80936C00CE
:1002100080916C00833009F417DF0BDF80916D0053
:100220008093670008958091640090916500880F25
:10023000991FDFCF089586E581BF83B7826083BFB2
:100240008FB582608FBD85E986BF87B38C6187BB20
:1002500088B7846088BF89B7846089BF85B78160AB
:1002600085BF8BB780648BBF789480916E008A3095
:10027000E1F729DFFACF1F920F920FB60F921124E8
:100280002F933F934F935F936F937F938F939F939E
:10029000AF93BF93EF93FF93809170008F5F809334
:1002A000700080916F008F3F09F4CEDE80916E0068
:1002B0008A30C9F480916F008F5F80936F00209126
:1002C000700080916D0030E0082E000C990B0196B3
:1002D0006AE070E03DD02817390729F480916D005D
:1002E0008F5F80936D00FF91EF91BF91AF919F91D0
:1002F0008F917F916F915F914F913F912F910F90CF
:100300000FBE0F901F9018951F920F920FB60F926D
:1003100011248F9380916E0081110AC0B19B08C097
:1003200080917000893020F0809170008C3048F00E
:100330001092700012BE8F910F900FBE0F901F9001
:1003400018958AE080936E008BB78F7B8BBFF0CFC0
:100350000024552704C0080E591F880F991F0097C5
:1003600029F076956795B8F37105B9F7802D952F2B
:060370000895F894FFCF90
:00000001FF
